:020000040800F2
:100000000000082099020008E5020008E502000847
:10001000E5020008E5020008E50200080000000013
:10002000000000000000000000000000E5020008E1
:10003000E502000800000000E5020008E5020008F3
:10004000E5020008E5020008E5020008E5020008F4
:10005000E5020008E5020008E5020008E5020008E4
:10006000E5020008E5020008E5020008E5020008D4
:10007000E5020008E5020008E5020008E5020008C4
:10008000E5020008E5020008E5020008E5020008B4
:10009000E5020008E5020008E5020008E5020008A4
:1000A000E5020008E5020008E5020008E502000894
:1000B000E5020008E5020008E5020008E502000884
:1000C000E5020008E5020008E5020008E502000874
:1000D000E5020008E5020008E5020008E502000864
:1000E000E5020008E5020008E5020008E502000854
:1000F000E5020008E5020008E5020008E502000844
:10010000E5020008E5020008E5020008E502000833
:10011000E5020008E5020008E5020008E502000823
:10012000E5020008E5020008E5020008E502000813
:10013000E5020008E5020008E5020008E502000803
:10014000E5020008E5020008E5020008E5020008F3
:10015000E5020008E5020008E5020008E5020008E3
:10016000E5020008E5020008E5020008E5020008D3
:10017000E5020008E5020008E502000800000000B2
:10018000E5020008E5020008E5020008E5020008B3
:10019000E5020008E5020008E5020008E5020008A3
:1001A000E5020008E5020008E5020008E502000893
:1001B000E5020008E5020008E5020008E502000883
:1001C000E5020008E502000800000000E502000862
:1001D000E5020008E5020008E5020008E502000863
:1001E000E5020008E5020008E5020008E502000853
:0801F000E5020008E502000829
:1001F8000348044B834202D0034B03B118477047AE
:100208000400002004000020000000000548064B00
:100218001B1AD90F01EBA301491002D0034B03B1FC
:100228001847704704000020040000200000000068
:1002380010B5064C237843B9FFF7DAFF044B13B126
:100248000448AFF300800123237010BD0400002090
:10025800000000003003000808B5054B1BB1054934
:100268000548AFF30080BDE80840FFF7CFBF00BFE7
:10027800000000000800002030030008024B034A79
:100288001A600020704700BF0000002014AEB14182
:10029800DFF830D00C480D490D4A002302E0D4584D
:1002A800C4500433C4188C42F9D30A4A0A4C0023B8
:1002B80001E013600432A242FBD300F011F8FFF70B
:1002C800DDFF704700000820000000200400002027
:1002D800500300080400002020000020FEE7000072
:1002E80070B50D4D0D4C641BA4100026A64209D113
:1002F8000B4D0C4C00F018F8641BA4100026A64205
:1003080005D170BD55F8043B98470136EEE755F81E
:10031800043B98470136F2E7480300084803000801
:10032800480300084C030008F8B500BFF8BC08BC37
:100338009E467047F8B500BFF8BC08BC9E4670479B
:040348006102000846
:04034C00390200086A
:040350000000803FEA
:040000050800029954
:00000001FF
